:020000040800F2
:10000000005000207D970008C1970008C1970008A4
:10001000C1970008C1970008C197000800000000C0
:10002000000000000000000000000000C197000870
:10003000C197000800000000C1970008C1970008A0
:10004000C1970008C1970008C1970008C197000830
:10005000C1970008C1970008C1970008C197000820
:10006000C1970008C1970008C1970008C197000810
:10007000C1970008C1970008C1970008C197000800
:10008000C1970008C1970008C1970008C1970008F0
:10009000C1970008C1970008C1970008C1970008E0
:1000A000C1970008C1970008C1970008C1970008D0
:1000B000C1970008C1970008C1970008C1970008C0
:1000C000C1970008C1970008C1970008C1970008B0
:1000D000C197000869020008C1970008C19700088D
:1000E000C1970008C1970008C197000800000000F0
:1000F0000000000000000000000000000000000000
:0C01000000000000000000005FF808F1A3
:10010C00A3F5803A704700BF154B002B08BF114B6D
:10011C009D46FFF7F5FF00218B460F461148124A0A
:10012C00121A09F099FB0C4B002B00D098470B4B83
:10013C00002B00D098470020002104000D000B4834
:10014C0009F03AFB09F064FB2000290000F046F9A5
:10015C0009F038FB0000080000000000000000005F
:10016C00000000005C040020F0040020F19700085F
:10017C0080B400AF0E4B00221A700DE00C4B1B78B4
:10018C00DBB21A460B4B00219954094B1B78DBB29E
:10019C000133DAB2064B1A70054B1B78DBB24F2BCE
:1001AC00ECD9034B00221A7000BFBD4680BC7047CF
:1001BC005D0400206004002080B586B000AF0121F2
:1001CC0044F2040005F030FC25233B7500237B75BD
:1001DC000023BB750123FB7507F11403184600F0CF
:1001EC0077F94FF400733B821823FB740323BB7421
:1001FC0007F110031946174804F0FAF84FF480631E
:10020C003B820423FB7407F110031946114804F0D8
:10021C00EFF84FF4E1333B600023BB800023FB80FD
:10022C0000233B810023BB810C237B813B46194679
:10023C00094808F081FB0121074808F093FC0122D2
:10024C0040F22551044808F0ACFC00BF1837BD46FD
:10025C0080BD00BF000801400038014080B500AFF0
:10026C001B4B1B889BB203F02003002B2ED018488D
:10027C0008F0A2FD0346DAB2164B1A70164B1B7827
:10028C00DBB21A46134B1B78D9B2144B9954124B50
:10029C001B78DBB20133DAB20F4B1A700D4B1B78A3
:1002AC00DBB20D2B07D00C4B1B78DBB24F2B05D9D7
:1002BC00FFF75EFF02E00A4B01221A70054B1B7818
:1002CC00DBB29BB21946024808F065FD00BF80BD49
:1002DC00003801405E0400205D0400206004002012
:1002EC005C04002080B582B000AF786010E07B68C1
:1002FC005A1C7A601B789BB219460A4808F04BFDD1
:10030C0000BF4021074808F087FE0346002BF8D0B9
:10031C007B681B78002BEAD100BF00BF0837BD46B5
:10032C0080BD00BF0038014080B582B000AF05F041
:10033C00A7F84FF4803005F0D1F805F0FDF803462E
:10034C00FB71FB79012B23D1002005F0A3F90020D0
:10035C0005F0D8F94FF4806005F0B8F94FF4E011CE
:10036C004FF4803005F03EF9012005F059F900BF3B
:10037C00392005F001FC0346002BF9D0022005F0D2
:10038C005FF900BF05F078F90346082BFAD100E0BD
:10039C00FEE70837BD4680BD80B487B000AFF8607B
:1003AC00B9607A6000237B610EE07B69FA681344C4
:1003BC001A787B69B9680B441B789A4201D00123E7
:1003CC0007E07B6901337B617A697B689A42ECDBDD
:1003DC00002318461C37BD4680BC704780B582B0E0
:1003EC0000AFFFF7A1FF0121102005F01DFB4FF41A
:1003FC000053BB801023FB710323BB713B1D1946BB
:10040C00204803F0F5FF4FF400511E4804F017F993
:10041C00FFF7D2FE1C48FFF765FF1C4B1B78DBB2C5
:10042C00012BFAD1194B00221A701948FFF75AFF09
:10043C001848FFF757FF1848FFF754FF03221749D6
:10044C001448FFF7A9FF0346002B07D11448FFF708
:10045C0049FF4FF400510B4804F0F1F80422114904
:10046C000C48FFF799FF0346002B07D10E48FFF706
:10047C0039FF4FF40051034804F0D3F8FFF778FE2E
:10048C00CBE700BF00100140A09A00085C040020DC
:10049C00BC9A000860040020D89A0008DC9A000876
:1004AC00E09A0008009B0008089B000880B483B009
:1004BC0000AF7860054A7B6843F0BF6343F40033B8
:1004CC00D36000BF0C37BD4680BC704700ED00E028
:1004DC0080B487B000AF786000237B6100233B6160
:1004EC000F23FB607B68DB78002B3AD0274BDB6853
:1004FC00DB431B0A03F007037B617B69C3F1040335
:10050C003B61FA687B6922FA03F3FB607B685B78DA
:10051C001A463B6902FA03F37B617B689B781A46A7
:10052C00FB6813407A6913437B617B691B017B6118
:10053C00174A7B681B787969C9B213440A4683F859
:10054C0000237B681B7803F01F0311497A6812782B
:10055C005209D2B21046012202FA03F341F82030BC
:10056C000FE07B681B7803F01F0309497A68127847
:10057C005209D2B2104601229A4000F1200341F8F0
:10058C00232000BF1C37BD4680BC704700ED00E047
:10059C0000E100E080B483B000AF786039603B6864
:1005AC0023F0604323F07F0304497A6813438B6084
:1005BC0000BF0C37BD4680BC704700BF00ED00E0AB
:1005CC0080B483B000AF03460A46FB711346BB717F
:1005DC00BB79002B06D0094B1A69FB7907491343E9
:1005EC000B6106E0054B1A69FB79DB4303491340A9
:1005FC000B6100BF0C37BD4680BC704700ED00E0BE
:10060C0080B483B000AF78607B68042B06D1094BB3
:10061C001B68084A43F00403136005E0054B1B6894
:10062C00044A23F00403136000BF0C37BD4680BCA2
:10063C00704700BF10E000E080B582B000AF78607A
:10064C007B68174A93420AD101214FF4007005F0E0
:10065C0027FA00214FF4007005F022FA1CE07B68A9
:10066C00104A93420AD101214FF4806005F018FA28
:10067C0000214FF4806005F013FA0DE07B680A4A04
:10068C00934209D101214FF4004005F009FA0021F1
:10069C004FF4004005F004FA00BF0837BD4680BD9A
:1006AC000024014000280140003C014080B485B08A
:1006BC0000AF786039600023FB600023FB727B681D
:1006CC005B68FB60FB6823F4702323F48073FB608E
:1006DC003B681A683B681B791B021343FA68134387
:1006EC00FB607B68FA685A607B689B68FB60FA6801
:1006FC00164B1340FB603B68DA683B689B681A43F7
:10070C003B685B795B001343FA681343FB607B68BF
:10071C00FA689A607B68DB6AFB60FB6823F4700301
:10072C00FB603B681B7C013BDAB2FB7A1343FB7228
:10073C00FB7A1B05FA681343FB607B68FA68DA6284
:10074C0000BF1437BD4680BC704700BFFDF7F1FFFA
:10075C0080B483B000AF78607B6800221A607B683D
:10076C0000221A717B6800225A717B6800229A6001
:10077C007B680022DA607B6801221A7400BF0C3798
:10078C00BD4680BC704780B483B000AF78600B4628
:10079C00FB70FB78002B06D07B689B6843F0010252
:1007AC007B689A6005E07B689B6823F001027B689C
:1007BC009A6000BF0C37BD4680BC704780B483B0D4
:1007CC0000AF78600B46FB70FB78002B06D07B6883
:1007DC009B6843F480727B689A6005E07B689B6839
:1007EC0023F480727B689A6000BF0C37BD4680BCD6
:1007FC00704780B485B000AF78600B467B801346A1
:10080C007B700023FB737B88FB737B78002B06D0FB
:10081C007B685A68FB7B1A437B685A6006E07B68EE
:10082C005A68FB7BDB431A407B685A6000BF143765
:10083C00BD4680BC704780B483B000AF78607B68E5
:10084C009B6843F008027B689A6000BF0C37BD467A
:10085C0080BC704780B485B000AF78600023FB7318
:10086C007B689B6803F00803002B02D00123FB7309
:10087C0001E00023FB73FB7B18461437BD4680BC9C
:10088C00704780B483B000AF78607B689B6843F09E
:10089C0004027B689A6000BF0C37BD4680BC704771
:1008AC0080B485B000AF78600023FB737B689B68D5
:1008BC0003F00403002B02D00123FB7301E000239F
:1008CC00FB73FB7B18461437BD4680BC704780B465
:1008DC0083B000AF78600B46FB70FB78002B06D022
:1008EC007B689B6843F4A0027B689A6005E07B6898
:1008FC009B6823F4A0027B689A6000BF0C37BD464E
:10090C0080BC704780B485B000AF78600023FB7367
:10091C007B689B6803F48003002B02D00123FB73DC
:10092C0001E00023FB73FB7B18461437BD4680BCEB
:10093C00704780B485B000AF78600B46FB70002325
:10094C00FB600023BB607B685B68FB60FB6823F487
:10095C006043FB60FB78013BBB60BB685B03FA68E0
:10096C001343FB607B68FA685A6000BF1437BD46BE
:10097C0080BC704780B483B000AF78600B46FB70CE
:10098C00FB78002B06D07B685B6843F400627B68C5
:10099C005A6005E07B685B6823F400627B685A60F0
:1009AC0000BF0C37BD4680BC704780B485B000AF2B
:1009BC007860084611461A460346FB700B46BB701E
:1009CC0013467B700023FB600023BB60FB78092B74
:1009DC0023D97B68DB68FB60FB78A3F10A02134622
:1009EC005B001344072202FA03F3BB60BB68DB43D2
:1009FC00FA681340FB607978FB78A3F10A0213467E
:100A0C005B00134401FA03F3BB60FA68BB68134341
:100A1C00FB607B68FA68DA601EE07B681B69FB6030
:100A2C00FA7813465B001344072202FA03F3BB6007
:100A3C00BB68DB43FA681340FB607978FA7813469D
:100A4C005B00134401FA03F3BB60FA68BB68134301
:100A5C00FB607B68FA681A61BB78062B21D87B682F
:100A6C005B6BFB60BB785A1E13469B0013441F2222
:100A7C0002FA03F3BB60BB68DB43FA681340FB600C
:100A8C00F978BB785A1E13469B00134401FA03F302
:100A9C00BB60FA68BB681343FB607B68FA685A63F7
:100AAC0047E0BB780C2B21D87B681B6BFB60BB78B9
:100ABC00DA1F13469B0013441F2202FA03F3BB6098
:100ACC00BB68DB43FA681340FB60F978BB78DA1F2C
:100ADC0013469B00134401FA03F3BB60FA68BB682E
:100AEC001343FB607B68FA681A6322E07B68DB6A5D
:100AFC00FB60BB78A3F10D0213469B0013441F222D
:100B0C0002FA03F3BB60BB68DB43FA681340FB607B
:100B1C00F978BB78A3F10D0213469B00134401FA3C
:100B2C0003F3BB60FA68BB681343FB607B68FA682D
:100B3C00DA6200BF1437BD4680BC704780B483B006
:100B4C0000AF78600B46FB70FB78002B06D07B68FF
:100B5C009B6843F480127B689A6005E07B689B6815
:100B6C0023F480127B689A6000BF0C37BD4680BCB2
:100B7C00704780B483B000AF78607B68DB6C9BB24D
:100B8C0018460C37BD4680BC704780B400AF034B91
:100B9C001B681846BD4680BC704700BF4C24014002
:100BAC0080B483B000AF78600B46FB70FB78002BF1
:100BBC0006D07B685B6843F480627B685A6005E012
:100BCC007B685B6823F480627B685A6000BF0C37DB
:100BDC00BD4680BC704780B483B000AF78600B46D4
:100BEC00FB70FB78002B06D07B685B6843F480526B
:100BFC007B685A6005E07B685B6823F480527B68F5
:100C0C005A6000BF0C37BD4680BC704780B485B0BD
:100C1C0000AF786039600023FB607B689B68FB60E9
:100C2C00FB6823F4E043FB60FA683B681343FB600A
:100C3C007B68FA689A6000BF1437BD4680BC704769
:100C4C0080B483B000AF78600B46FB70FB78002B50
:100C5C0006D07B689B6843F400427B689A6005E091
:100C6C007B689B6823F400427B689A6000BF0C375A
:100C7C00BD4680BC704780B483B000AF78600B4633
:100C8C00FB70FB78002B06D07B689B6843F4021248
:100C9C007B689A6005E07B689B6823F402127B6892
:100CAC009A6000BF0C37BD4680BC704780B485B0DD
:100CBC0000AF78600023FB737B689B6803F4001320
:100CCC00002B02D00123FB7301E00023FB73FB7BA1
:100CDC0018461437BD4680BC704780B487B000AF4F
:100CEC007860084611461A460346FB700B46BB70EB
:100CFC0013467B7000237B6100233B610023FB6068
:100D0C00FB78092B23D97B68DB687B61FB78A3F12B
:100D1C000A0213465B001344072202FA03F33B61F9
:100D2C003B69DB437A6913407B617978FB78A3F1EB
:100D3C000A0213465B00134401FA03F33B617A6920
:100D4C003B6913437B617B687A69DA601EE07B68E0
:100D5C001B697B61FA7813465B001344072202FA85
:100D6C0003F33B613B69DB437A6913407B61797820
:100D7C00FA7813465B00134401FA03F33B617A697A
:100D8C003B6913437B617B687A691A617B689B6B57
:100D9C007B617B691B0D03F00303FB60FB68DBB21B
:100DAC00BA78D31ADBB20233DBB21A4613469B0075
:100DBC0013441F2202FA03F33B613B69DB437A695C
:100DCC0013407B61FA78FB68DBB2B978CB1ADBB2E3
:100DDC000233DBB219460B469B000B4402FA03F3B9
:100DEC003B617A693B6913437B617B687A699A63DF
:100DFC0000BF1C37BD4680BC704780B485B000AFC7
:100E0C0078600B46FB700023FB600023BB607B68A3
:100E1C009B6BFB60FB6823F44013FB60FB78013B8E
:100E2C00BB60BB681B05FA681343FB607B68FA6800
:100E3C009A6300BF1437BD4680BC704780B485B040
:100E4C0000AF78600B46FB7013463B800023FB60C1
:100E5C007B68FB60FA78FB681344FB60FB681A46FE
:100E6C003B88136000BF1437BD4680BC704780B40C
:100E7C0085B000AF78600B46FB700023FB607B688D
:100E8C00FB60FA78FB6813442833FB60FB681B6833
:100E9C009BB218461437BD4680BC704780B485B0F1
:100EAC0000AF786039600023FB607B685B68FB6097
:100EBC00FB6823F4400323F40073FB60FA683B687F
:100ECC001343FB607B68FA685A6000BF1437BD4659
:100EDC0080BC704780B483B000AF78600B467B80D9
:100EEC0013463B807A887B685A623A887B689A62A0
:100EFC0000BF0C37BD4680BC704780B485B000AFD6
:100F0C0078600B46FB700023FB607B685B68FB60C2
:100F1C00FB6823F01F03FB60FB78FA681343FB604C
:100F2C007B68FA685A6000BF1437BD4680BC7047B6
:100F3C0080B483B000AF0346FB71FB79002B06D065
:100F4C00084B9B68074A43F40003936005E0054B8C
:100F5C009B68044A23F40003936000BF0C37BD4622
:100F6C0080BC70470024014080B485B000AF78602D
:100F7C000B46FB700023FB737B681A68FB781340ED
:100F8C00002B02D00123FB7301E00023FB73FB7BDE
:100F9C0018461437BD4680BC704780B483B000AF90
:100FAC0078600B46FB70FB78DA437B681A6000BFF5
:100FBC000C37BD4680BC704780B487B000AF7860FA
:100FCC000B467B800023FB7500233B610023FB60F9
:100FDC007B881B0A9BB23B617B685B687A88D2B2C8
:100FEC001340FB607B681A683B691340002B05D0EB
:100FFC00FB68002B02D00123FB7501E00023FB757D
:10100C00FB7D18461C37BD4680BC704780B485B04C
:10101C0000AF78600B467B800023FB737B881B0A38
:10102C009BB2FB73FB7BDA437B681A6000BF1437FF
:10103C00BD4680BC704700BF80B500AF012004F0F6
:10104C006BFD002004F068FD00BF80BD80B483B050
:10105C0000AF0346FB80044AFB88136000BF0C37CB
:10106C00BD4680BC704700BF04860D4280B483B07F
:10107C0000AF0346FB71044AFB79136000BF0C37C9
:10108C00BD4680BC704700BF00860D4280B483B063
:10109C0000AF0346FB71044AFB79136000BF0C37A9
:1010AC00BD4680BC704700BF88860D4280B485B0B9
:1010BC0000AF0346FB800023FB81094B9B8DFB811A
:1010CC00FB8923F46073FB81FA89FB881343FB8152
:1010DC00034AFB89938500BF1437BD4680BC70471B
:1010EC00006C004080B485B000AF0346FB71002358
:1010FC00FB810A4B9B8DFB81FB8923F07F03FB81DA
:10110C00FB799AB2FB891343FB81044AFB899385D3
:10111C0000BF1437BD4680BC704700BF006C004058
:10112C0080B485B000AF03460A46FB801346BB80F3
:10113C000023FB60074BFB60FA88FB681344FB60E1
:10114C00FB681A46BB88136000BF1437BD4680BCD1
:10115C00704700BF006C004080B485B000AF034600
:10116C00FB800023FB60074BFB60FA88FB68134491
:10117C00FB60FB681B889BB218461437BD4680BCCD
:10118C00704700BF006C004080B400AF034B1B687D
:10119C00DBB21846BD4680BC704700BFA0860D422E
:1011AC0080B400AF054B9B8E9BB2044A43F0010305
:1011BC009BB2938600BFBD4680BC7047006C00405C
:1011CC0080B400AF034B1B68DBB21846BD4680BC35
:1011DC00704700BFA4860D4280B400AF054B9B8EB8
:1011EC009BB2044A43F002039BB2938600BFBD46F8
:1011FC0080BC7047006C004080B582B000AF786056
:10120C007B680E4A93420AD101214FF0007004F022
:10121C0065FC00214FF0007004F060FC09E0012136
:10122C004FF0806004F05AFC00214FF0806004F015
:10123C0055FC00BF0837BD4680BD00BF00640040B0
:10124C0080B485B000AF786039600023FB73002355
:10125C00BB607B681B6823F002027B681A607B68AA
:10126C001B6843F001027B681A6002E0BB68013323
:10127C00BB607B685B6803F00103012B04D0BB6887
:10128C004FF6FF729342F1D17B685B6803F0010368
:10129C00012B02D00023FB739CE03B689B79012B54
:1012AC0006D17B681B6843F080027B681A6005E0FE
:1012BC007B681B6823F080027B681A603B68DB79D3
:1012CC00012B06D17B681B6843F040027B681A60D7
:1012DC0005E07B681B6823F040027B681A603B6862
:1012EC001B7A012B06D17B681B6843F020027B68BC
:1012FC001A6005E07B681B6823F020027B681A608B
:10130C003B685B7A012B06D17B681B6843F01002AB
:10131C007B681A6005E07B681B6823F010027B6811
:10132C001A603B689B7A012B06D17B681B6843F0E3
:10133C0008027B681A6005E07B681B6823F00802D2
:10134C007B681A603B68DB7A012B06D17B681B68D3
:10135C0043F004027B681A6005E07B681B6823F08D
:10136C0004027B681A603B689B789A073B68DB78C1
:10137C001B061A433B681B791B041A433B685B79B9
:10138C001B051A433B681B88013B1A437B68DA61D7
:10139C007B681B6823F001027B681A600023BB602A
:1013AC0002E0BB680133BB607B685B6803F0010340
:1013BC00012B04D1BB684FF6FF729342F1D17B68CD
:1013CC005B6803F00103012B02D10023FB7301E0E6
:1013DC000123FB73FB7B18461437BD4680BC70475A
:1013EC0090B484B000AF78600023FB607B689B7A7C
:1013FC001A4601239340FB60594BD3F80032584AEC
:10140C0043F00103C2F80032554BD3F81C22FB68A1
:10141C00DB4353491340C1F81C327B681B7B002B08
:10142C0029D14F4BD3F80C22FB68DB434C491340BA
:10143C00C1F80C327B68DB881B047A68528814462E
:10144C0047497A68927A104643EA040200F148034D
:10145C0041F833207B689B881B047A6812881446F9
:10146C003F497A68927A104643EA040200F1480335
:10147C00DB000B445A607B681B7B012B28D1384B5B
:10148C00D3F80C223649FB681343C1F80C327B6845
:10149C001B881B047A685288144631497A68927A00
:1014AC00104643EA040200F1480341F833207B68FC
:1014BC009B881B047A68D288144629497A68927AE8
:1014CC00104643EA040200F14803DB000B445A6067
:1014DC007B68DB7A002B09D1214BD3F80422FB6803
:1014EC00DB431F491340C1F8043207E01C4BD3F80F
:1014FC0004221B49FB681343C1F804327B681B8927
:10150C00002B08D1164BD3F81422FB68DB4314498B
:10151C001340C1F814327B681B89012B07D1104B87
:10152C00D3F814220E49FB681343C1F814327B68BC
:10153C005B7B012B07D10A4BD3F81C220849FB68B3
:10154C001343C1F81C32064BD3F80032044A23F083
:10155C000103C2F8003200BF1037BD4690BC704783
:10156C000064004080B483B000AF78607B680022D8
:10157C009A717B680022DA717B6800221A727B6890
:10158C0000225A727B6800229A727B680022DA72FF
:10159C007B6800229A707B680022DA707B680322D9
:1015AC001A717B6802225A717B6801221A8000BF73
:1015BC000C37BD4680BC704780B483B000AF034687
:1015CC00FB71144BD3F80032124A43F00103C2F8FA
:1015DC000032104BD3F800320E4A23F47C5323F024
:1015EC000E03C2F800320B4BD3F80022FB791B021E
:1015FC0008491343C1F80032064BD3F80032054AB0
:10160C0023F00103C2F8003200BF0C37BD4680BC8A
:10161C00704700BF0064004080B483B000AF7860B6
:10162C000B46FB70FB78002B06D07B681B6843F4E1
:10163C0080327B681A6005E07B681B6823F480327B
:10164C007B681A6000BF0C37BD4680BC704780B405
:10165C0083B000AF78600B46FB70FB78002B1ED07C
:10166C007B681B6843F080027B681A607B68D3F848
:10167C00843143F480727B68C3F884217B68D3F88F
:10168C00943143F480727B68C3F894217B68D3F85F
:10169C00A43143F480727B68C3F8A4211DE07B68FD
:1016AC001B6823F080027B681A607B68D3F8843156
:1016BC0023F480727B68C3F884217B68D3F894315F
:1016CC0023F480727B68C3F894217B68D3F8A4312F
:1016DC0023F480727B68C3F8A42100BF0C37BD468D
:1016EC0080BC704780B485B000AF7860396000234F
:1016FC00FB737B689B6803F08063B3F1806F02D14E
:10170C000023FB7315E07B689B6803F00063B3F167
:10171C00006F02D10123FB730BE07B689B6803F025
:10172C008053B3F1805F02D10223FB7301E00423E9
:10173C00FB73FB7B042B00F09F80FB7B7A681833D8
:10174C001B0113441A68FB7B02F001027968183301
:10175C001B010B441A603B681B7A002B13D1FB7BDB
:10176C007A6818331B01134419683B681B685B05C6
:10177C003A68527A1A43FB7B0A43796818331B0187
:10178C000B441A6015E0FB7B7A6818331B01134479
:10179C0019683B685B68DB003A68127A13433A6855
:1017AC00527A1A43FB7B0A43796818331B010B44AA
:1017BC001A603B689B7A03F00F03DAB23B689A72AB
:1017CC00FB7B7A6818331B01134404331A68FB7BC8
:1017DC0022F00F02796818331B010B4404331A6092
:1017EC00FB7B7A6818331B01134404331A683B687B
:1017FC009B7A1946FB7B0A43796818331B010B440F
:10180C0004331A603B689B7B1A063B685B7B1B04AA
:10181C001A433B681B7B1B021A433B68DB7A194655
:10182C00FB7B0A4379681B010B4403F5C4731A60F4
:10183C003B689B7C1A063B685B7C1B041A433B6829
:10184C001B7C1B021A433B68DB7B1946FB7B0A4360
:10185C0079681B010B4403F5C6731A60FB7B7A682D
:10186C0018331B0113441A68FB7B42F001027968A0
:10187C0018331B010B441A60FB7B18461437BD460A
:10188C0080BC704780B485B000AF78600B46FB70AD
:10189C000023FB60FB78022B12D0022B16DC002BF2
:1018AC0002D0012B06D011E07B689A68304B1340B4
:1018BC00FB600EE07B689A682E4B1340FB6008E0DF
:1018CC007B689A682C4B1340FB6002E00023FB60A2
:1018DC0000BFFB68284A93423DD0FB68264A9342DE
:1018EC003CD8FB68254A93422CD0FB68234A934290
:1018FC0034D8FB681F4A93422AD0FB681D4A934296
:10190C002CD8FB681E4A934219D0FB681C4A9342A0
:10191C0024D8FB68164A934217D0FB68144A9342AA
:10192C001CD8FB68002B04D0FB68164A934203D0EA
:10193C0014E00223FB6014E00023FB6011E00023A1
:10194C00FB600EE00023FB600BE00123FB6008E072
:10195C000123FB6005E00123FB6002E00023FB6038
:10196C0000BFFB68DBB218461437BD4680BC70471D
:10197C000300000400030008000003100000011025
:10198C00000100080100000480B483B000AF78604F
:10199C000B46FB70FB78022B14D0022B19DC002BAE
:1019AC0002D0012B07D014E07B689B6843F08002C7
:1019BC007B689A600EE07B689B6843F400427B680E
:1019CC009A6007E07B689B6843F400027B689A602E
:1019DC0000E000BF00BF0C37BD4680BC704780B430
:1019EC0085B000AFF8600B467A60FB72FB7AFA6840
:1019FC001B331B0113441B68DBB203F00403DAB284
:101A0C007B681A727B681B7A002B0BD1FB7AFA6805
:101A1C001B331B0113441B685B0DC3F30A027B6869
:101A2C001A600AE0FB7AFA681B331B0113441B682B
:101A3C00DB0823F060427B685A60FB7AFA681B3340
:101A4C001B0113441B68DBB203F00203DAB27B68A0
:101A5C005A72FB7AFA681B331B01134404331B685C
:101A6C00DBB203F00F03DAB27B689A72FB7AFA6886
:101A7C001B331B01134404331B681B0ADAB27B684B
:101A8C00DA74FB7AFA681B01134403F5DC731B68E8
:101A9C00DAB27B68DA72FB7AFA681B01134403F53D
:101AAC00DC731B681B0ADAB27B681A73FB7AFA6860
:101ABC001B01134403F5DC731B681B0CDAB27B6847
:101ACC005A73FB7AFA681B01134403F5DC731B6829
:101ADC001B0EDAB27B689A73FB7AFA681B0113440B
:101AEC0003F5DE731B68DAB27B68DA73FB7AFA688B
:101AFC001B01134403F5DE731B681B0ADAB27B6807
:101B0C001A74FB7AFA681B01134403F5DE731B6825
:101B1C001B0CDAB27B685A74FB7AFA681B0113440B
:101B2C0003F5DE731B681B0EDAB27B689A74FB7AC2
:101B3C00002B06D1FB68DB6843F02002FB68DA60FF
:101B4C0005E0FB681B6943F02002FB681A6100BFCB
:101B5C001437BD4680BC704780B483B000AF78604A
:101B6C000B46FB70FB78002B06D17B68DB6843F0DF
:101B7C0020027B68DA6005E07B681B6943F0200279
:101B8C007B681A6100BF0C37BD4680BC704780B4BF
:101B9C0085B000AF78600B46FB700023FB73FB78BD
:101BAC00002B06D17B68DB68DBB203F00303FB730D
:101BBC000BE0FB78012B06D17B681B69DBB203F0D1
:101BCC000303FB7301E00023FB73FB7B1846143704
:101BDC00BD4680BC704780B485B000AF78600B46C2
:101BEC00FB700023FB734FF6FF73BB60FB78002B7D
:101BFC0020D17B681B6823F0030343F001027B6850
:101C0C001A6002E0BB68013BBB607B685B6803F059
:101C1C000303012B02D0BB68002BF3D17B685B68FC
:101C2C0003F00303012B02D00023FB734AE00123D2
:101C3C00FB7347E0FB78012B1ED17B681B6823F0FC
:101C4C0003027B681A6002E0BB68013BBB607B68E7
:101C5C005B6803F00303002B02D0BB68002BF3D1AD
:101C6C007B685B6803F00303002B02D00023FB733B
:101C7C0028E00123FB7325E0FB78022B20D17B6845
:101C8C001B6823F0030343F002027B681A6002E036
:101C9C00BB68013BBB607B685B6803F00303022BF2
:101CAC0002D0BB68002BF3D17B685B6803F00303A5
:101CBC00022B02D00023FB7304E00123FB7301E031
:101CCC000023FB73FB7B18461437BD4680BC704762
:101CDC0080B485B000AF78600023FB737B681B6811
:101CEC0023F0030343F002027B681A607B685B6895
:101CFC0003F00303022B01D10123FB73FB7B18467A
:101D0C001437BD4680BC704780B485B000AF786096
:101D1C004FF6FF73FB600023FB727B681B6823F09C
:101D2C0002027B681A6002E0FB68013BFB607B6887
:101D3C005B6803F00203022B02D1FB68002BF3D18A
:101D4C007B685B6803F00203022B01D00123FB725A
:101D5C00FB7A18461437BD4680BC704780B485B0FA
:101D6C0000AF78600023FB737B689B69DBB203F0E8
:101D7C007003FB73FB7B18461437BD4680BC704761
:101D8C0080B485B000AF78600023FB737B689B69DF
:101D9C001B0EFB73FB7B18461437BD4680BC70478B
:101DAC0080B485B000AF78600023FB737B689B69BF
:101DBC001B0CFB73FB7B18461437BD4680BC70476D
:101DCC0080B485B000AFF860B9601346FB71FB7945
:101DDC00002B06D0FB685A69BB681A43FB685A6132
:101DEC0006E0FB685A69BB68DB431A40FB685A6122
:101DFC0000BF1437BD4680BC704780B485B000AFBF
:101E0C00786039600023FB733B6803F47003002B8C
:101E1C000DD07B689A693B681340C3F31303002B06
:101E2C0002D00123FB7348E00023FB7345E03B68C1
:101E3C0003F08073002B0DD07B685A683B6813400D
:101E4C00C3F31303002B02D00123FB7335E00023F3
:101E5C00FB7332E03B6803F00063002B0DD07B6812
:101E6C009A683B681340C3F31303002B02D0012381
:101E7C00FB7322E00023FB731FE03B6803F000734D
:101E8C00002B0DD07B68DA683B681340C3F3130357
:101E9C00002B02D00123FB730FE00023FB730CE03B
:101EAC007B681A693B681340C3F31303002B02D001
:101EBC000123FB7301E00023FB73FB7B18461437F3
:101ECC00BD4680BC704780B485B000AF7860396087
:101EDC000023FB603B68174A934203D17B680022C6
:101EEC009A6121E03B68C3F31303FB603B6803F08A
:101EFC000073002B03D07B68FA68DA6014E03B684F
:101F0C0003F08063002B03D07B68FA681A610BE046
:101F1C003B6803F00063002B03D07B68FA689A607F
:101F2C0002E07B68FA685A6000BF1437BD4680BC7B
:101F3C00704700BF7000F03080B584B000AF78609F
:101F4C0039600023FB737B685A693B681340002B94
:101F5C0000F01B813B68B3F5003F00F0DD803B686F
:101F6C00B3F5003F00F20E813B68B3F5803F00F003
:101F7C00CA803B68B3F5803F00F204813B68B3F53F
:101F8C00004F00F0F6803B68B3F5004F00F2FA808A
:101F9C003B68B3F5006F00F0E3803B68B3F5006F6E
:101FAC0000F2F0803B68B3F5806F00F0D0803B68A6
:101FBC00B3F5806F00F2E6803B68B3F5007F00F06C
:101FCC00BD803B68B3F5007F00F2DC803B68B3F565
:101FDC00807F00F0AA803B68B3F5807F00F2D2804E
:101FEC003B68202B4CD83B68002B00F0CB803B6827
:101FFC00013B1F2B00F2C68001A252F823F000BF58
:10200C0095200008A720000891210008B92000089D
:10201C00912100089121000891210008CB20000893
:10202C0091210008912100089121000891210008BC
:10203C00912100089121000891210008DD20000861
:10204C00912100089121000891210008912100089C
:10205C00912100089121000891210008912100088C
:10206C00912100089121000891210008912100087C
:10207C00912100089121000891210008EF2000080F
:10208C003B68402B36D07DE07B689B684249184604
:10209C0000F05EF90346FB7379E07B68DB68032193
:1020AC00184600F055F90346FB7370E07B68DB685B
:1020BC000821184600F04CF90346FB7367E07B6877
:1020CC00DB681021184600F043F90346FB735EE011
:1020DC007B681B690321184600F03AF90346FB7331
:1020EC0055E07B681B690821184600F031F903465E
:1020FC00FB734CE07B681B691021184600F028F933
:10210C000346FB7343E07B685B680821184600F0CC
:10211C001FF90346FB733AE07B685B681021184695
:10212C0000F016F90346FB7331E07B689B690121D3
:10213C00184600F00DF90346FB7328E07B689B6999
:10214C000221184600F004F90346FB731FE07B687C
:10215C009B690421184600F0FBF80346FB7316E05C
:10216C007B689B697021184600F0F2F80346FB73FC
:10217C000DE07B685B680421184600F0E9F8034623
:10218C00FB7304E00023FB7301E00023FB73FB7B78
:10219C0018461037BD4680BD0101010080B483B0E4
:1021AC0000AF786039603B68B3F5003F00F0AA805F
:1021BC003B68B3F5003F00F2C3803B68B3F5803F4A
:1021CC0000F09C803B68B3F5803F00F2B9803B681F
:1021DC00B3F5004F00F0AD803B68B3F5004F00F253
:1021EC00AF803B68B3F5006F00F09C803B68B3F5A3
:1021FC00006F00F2A5803B68B3F5806F00F08E8015
:10220C003B68B3F5806F00F29B803B68B3F5007FB1
:10221C0000F080803B68B3F5007F00F291803B6852
:10222C00B3F5807F72D03B68B3F5807F00F2888075
:10223C003B68202B4AD83B68002B00F081803B6820
:10224C00013B1F2B7CD801A252F823F0E12200089D
:10225C004D2300084D230008E92200084D230008F7
:10226C004D2300084D230008F12200084D230008DF
:10227C004D2300084D2300084D2300084D23000872
:10228C004D2300084D2300084D2300084D23000862
:10229C004D2300084D2300084D2300084D23000852
:1022AC004D2300084D2300084D2300084D23000842
:1022BC004D2300084D2300084D2300084D23000832
:1022CC004D2300084D230008F92200083B68402BE1
:1022DC0010D035E07B681D4A9A6032E07B6808229A
:1022EC00DA602EE07B681022DA602AE07B68082234
:1022FC001A6126E07B6810221A6122E07B680822B2
:10230C005A601EE07B6810225A601AE07B68042237
:10231C005A6016E07B6804225A6012E07B68042243
:10232C005A600EE07B6800229A617B6804225A6036
:10233C0007E07B6800229A617B6804225A6000E007
:10234C0000BF00BF0C37BD4680BC704701010100C7
:10235C0080B485B000AF786039600023FB737A6875
:10236C003B681340002B02D00123FB7301E00023D8
:10237C00FB73FB7B18461437BD4680BC704700BF0F
:10238C0080B500AF01214FF0804003F0A7FB002186
:10239C004FF0804003F0A2FB00BF80BD80B485B03D
:1023AC0000AF78600023FB810B4B1B68FB81FB8922
:1023BC0003F0F303FB817B681A887B685B8813430B
:1023CC009AB2FB891343FB81034AFB89136000BF5C
:1023DC001437BD4680BC70470078004080B483B091
:1023EC0000AF0346FB71094AFB791360FB79002BA4
:1023FC0006D100BF064B1B6803F00103002BF9D17B
:10240C0000BF0C37BD4680BC704700BF00000F42B8
:10241C000078004080B483B000AF0346FB71044ADF
:10242C00FB79136000BF0C37BD4680BC704700BF02
:10243C0004000F4280B483B000AF0346FB71044A22
:10244C00FB79536000BF0C37BD4680BC704700BFA2
:10245C000078004080B483B000AF0346FB80044A90
:10246C00FB88936000BF0C37BD4680BC704700BF33
:10247C000078004080B483B000AF0346FB71044A7F
:10248C00FB79536100BF0C37BD4680BC704700BF61
:10249C000078004080B400AF034B9B69DBB2184658
:1024AC00BD4680BC704700BF0078004080B400AFD0
:1024BC00034B01221A6000BFBD4680BC704700BFB1
:1024CC0000020F4280B483B000AF0346FB71044A94
:1024DC00FB79136000BF0C37BD4680BC704700BF52
:1024EC0004020F4280B487B000AF78600023FB7504
:1024FC000023FB6000233B61134B3B617B681B0F8C
:10250C00FB607B6823F07F437B60FB68002B06D06D
:10251C007B681B0C7B603B690C333B6102E03B69C5
:10252C0010333B613B691A687B681340002B02D067
:10253C000123FB7501E00023FB75FB7D18461C375E
:10254C00BD4680BC704700BF0078004080B485B0A9
:10255C0000AF78600023FB600A4B1B6903F0020399
:10256C00FB60084B1A697B68DB4323F00301FB68B3
:10257C000B43044913400B6100BF1437BD4680BCAC
:10258C00704700BF0078004080B485B000AF0346B0
:10259C00FB710023FB730023BB600C4B1B6803F027
:1025AC000203BB60094B1A69FB791340002B05D061
:1025BC00BB68002B02D00123FB7301E00023FB73EB
:1025CC00FB7B18461437BD4680BC70470078004032
:1025DC0080B485B000AF0346FB800023FB600A4B40
:1025EC001B6903F00203FB60074B1A69FB88DB4392
:1025FC0023F00301FB680B43034913400B6100BF3D
:10260C001437BD4680BC70470078004080B400AFE2
:10261C00034B01229A6000BFBD4680BC704700BFCF
:10262C000030024080B483B000AF7860044A7B680D
:10263C001360034B1B6818460C37BD4680BC7047B3
:10264C000030024080B485B000AF78603960002360
:10265C00FB600023FB6009E0FB689B007A68134475
:10266C00084A1B681360FB680133FB60FA683B681F
:10267C009A42F1D3034B1B6818461437BD4680BCF5
:10268C00704700BF0030024080B400AF024B1B68A3
:10269C001846BD4680BC70470030024080B483B001
:1026AC0000AF0346FB71044AFB79137100BF0C3772
:1026BC00BD4680BC704700BF0030024080B400AF04
:1026CC00034B1B79DBB21846BD4680BC704700BF7C
:1026DC000030024080B500AF01214FF0005003F0F4
:1026EC00FDF900214FF0005003F0F8F900BF80BD58
:1026FC0080B485B000AF786039600023FB600023A4
:10270C00BB60134B1B68FB6040F6FE727B6802FAE1
:10271C0003F3DB43FA681340FB603B681A683B68C1
:10272C005B681A433B689B681A433B68DB6813433E
:10273C00BB60BA687B6802FA03F3FA681343FB6068
:10274C00034AFB68136000BF1437BD4680BC70475A
:10275C000074004080B483B000AF78607B680022C6
:10276C001A607B6800225A607B6800229A607B6842
:10277C000022DA6000BF0C37BD4680BC704780B4C5
:10278C0083B000AF78600B46FB70FB78002B09D050
:10279C000C4B1A6801217B6801FA03F309491343B6
:1027AC000B6009E0074B1A6801217B6801FA03F3FF
:1027BC00DB43044913400B6000BF0C37BD4680BCA3
:1027CC00704700BF0074004080B483B000AF7860E5
:1027DC000B46FB70FB78002B0AD00D4B1A684FF49C
:1027EC0080517B6801FA03F3094913430B600AE03B
:1027FC00074B1A684FF480517B6801FA03F3DB43F3
:10280C00034913400B6000BF0C37BD4680BC7047BA
:10281C000074004080B483B000AF78600B46FB704E
:10282C00FB78002B0AD00D4B5A687B681B090121E1
:10283C0001FA03F3094913434B600AE0074B5A684A
:10284C007B681B09012101FA03F3DB4303491340A5
:10285C004B6000BF0C37BD4680BC70470074004015
:10286C0080B483B000AF0346FB71FB79002B06D01C
:10287C00084B5B68074A43F00303536005E0054BC4
:10288C005B68044A23F00303536000BF0C37BD465A
:10289C0080BC70470074004080B485B000AFF86015
:1028AC00B9601346FB71FB79002B09D00C4B1A68ED
:1028BC00B968FB6801FA03F3094913430B6009E09B
:1028CC00074B1A68B968FB6801FA03F3DB43044948
:1028DC0013400B6000BF1437BD4680BC704700BF6F
:1028EC000074004080B485B000AF78600B467B80EC
:1028FC000023FB60074BFB60FA687B6813440833CA
:10290C00FB60FB681A467B88136000BF1437BD461A
:10291C0080BC70470074004080B485B000AF786014
:10292C000B467B800023FB60074BFB60FA687B68DF
:10293C0013441433FB60FB681A467B88136000BF9A
:10294C001437BD4680BC70470074004080B485B01D
:10295C0000AF78600B467B8013463B800023FB6006
:10296C000023BB607B68082B05D17B881A023B884F
:10297C001343FB6004E07B881A043B881343FB6021
:10298C00074BBB607A68BB6813442033BB60BB68E1
:10299C00FA681A6000BF1437BD4680BC704700BF90
:1029AC000074004080B485B000AF78600023FB60F9
:1029BC00074BFB607B689A08FB6813442C33FB6065
:1029CC00FB681B689BB218461437BD4680BC704729
:1029DC000074004080B400AF034B1B681B0C1846FE
:1029EC00BD4680BC704700BF002004E080B400AF3F
:1029FC00034B1B68C3F30B031846BD4680BC7047E2
:102A0C00002004E080B483B000AF78600B46FB700C
:102A1C00FB78002B06D0094B5A6808497B68134396
:102A2C004B6006E0054B5A687B68DB430349134057
:102A3C004B6000BF0C37BD4680BC7047002004E0E3
:102A4C0080B483B000AF78607B681A684FF6FE7371
:102A5C0013407A6813607B6800221A607B6800223E
:102A6C005A607B6800229A607B680022DA607B687F
:102A7C00434A934206D1434B5B68424A43F00F03EF
:102A8C00536077E07B68404A934206D13D4B5B68CC
:102A9C003C4A43F0F00353606CE07B683B4A934242
:102AAC0006D1384B5B68374A43F47063536061E07E
:102ABC007B68374A934206D1324B5B68314A43F408
:102ACC007043536056E07B68324A934206D12D4BDB
:102ADC005B682C4A43F4702353604BE07B682E4AAE
:102AEC00934206D1274B5B68264A43F4700353602C
:102AFC0040E07B68294A934206D1224B5B68214A0D
:102B0C0043F07063536035E07B68254A934206D1ED
:102B1C00244B5B68234A43F00F0353602AE07B6825
:102B2C00214A934206D11F4B5B681E4A43F0F003C7
:102B3C0053601FE07B681D4A934206D1194B5B68BA
:102B4C00184A43F47063536014E07B68184A93424C
:102B5C0006D1144B5B68134A43F47043536009E08D
:102B6C007B68144A934205D10E4B5B680D4A43F4C3
:102B7C007023536000BF0C37BD4680BC704700BF4C
:102B8C0008000240000002401C00024030000240DD
:102B9C0044000240580002406C0002408000024099
:102BAC0008040240000402401C04024030040240AD
:102BBC00440402405804024080B485B000AF7860F1
:102BCC0039600023FB607B681B68FB60FB6823F4A7
:102BDC00FF4323F07003FB603B689A683B681B6AF9
:102BEC001A433B681B691A433B685B691A433B6891
:102BFC009B691A433B68DB691A433B685B6A1A435F
:102C0C003B689B6A1343FA681343FB607B68FA6862
:102C1C001A603B68DA687B685A603B681A687B68A4
:102C2C009A603B685A687B68DA6000BF1437BD460F
:102C3C0080BC704780B483B000AF78607B680022A2
:102C4C001A607B6800225A607B6800229A607B685D
:102C5C000022DA607B6800221A617B6800225A61CC
:102C6C007B6800229A617B680022DA617B68002213
:102C7C001A627B6800225A627B6800229A6200BF4B
:102C8C000C37BD4680BC704780B483B000AF786011
:102C9C000B46FB70FB78002B06D07B681B6843F05F
:102CAC0001027B681A6006E07B681A684FF6FE73B7
:102CBC0013407A68136000BF0C37BD4680BC704768
:102CCC0080B485B000AFF860B9601346FB71FB7936
:102CDC00002B06D0FB681A68BB681A43FB681A60A5
:102CEC0006E0FB681A68BB68DB431A40FB681A6095
:102CFC0000BF1437BD4680BC704780B483B000AFB2
:102D0C0078600B467B807A887B685A6000BF0C37F2
:102D1C00BD4680BC704780B483B000AF78607B68E0
:102D2C005B689BB218460C37BD4680BC704780B4BC
:102D3C0085B000AF78600023FB730023BB607B6819
:102D4C0003F08053002B03D00B4B1B68BB6002E0DD
:102D5C000A4B1B68BB60BA687B681340002B02D01F
:102D6C000123FB7301E00023FB73FB7B1846143734
:102D7C00BD4680BC704700BF00040240000002400A
:102D8C0080B483B000AF78607B6803F08053002B75
:102D9C0003D0064A7B68536002E0054A7B685360A7
:102DAC0000BF0C37BD4680BC704700BF000402401A
:102DBC000000024080B485B000AF78600023FB7344
:102DCC000023BB607B6803F08053002B03D00B4BBC
:102DDC001B68BB6002E00A4B1B68BB60BA687B686F
:102DEC001340002B02D00123FB7301E00023FB7383
:102DFC00FB7B18461437BD4680BC7047000402406C
:102E0C000000024080B483B000AF78607B6803F0B0
:102E1C008053002B03D0064A7B68536002E0054ABE
:102E2C007B68536000BF0C37BD4680BC704700BF49
:102E3C00000402400000024080B400AF094B0022A5
:102E4C001A60084B00225A60064B00229A60054B10
:102E5C000022DA60034B044A5A6100BFBD4680BCB5
:102E6C00704700BF00040140FFFF0F0080B485B025
:102E7C0000AF78600023FB60344BFB607B689B7970
:102E8C00002B4FD0314B1A687B681B68DB432F49F2
:102E9C0013400B602D4B5A687B681B68DB432B4936
:102EAC0013404B607B681B791A46FB681344FB602C
:102EBC00FB6819687B681A68FB680A431A60234B25
:102ECC009A687B681B68DB43204913408B601F4B5F
:102EDC00DA687B681B68DB431C491340CB607B685A
:102EEC005B79102B0ED1194B9A687B681B681749BC
:102EFC0013438B60154BDA687B681B6813491343CB
:102F0C00CB601DE0114BFB607B685B791A46FB685C
:102F1C001344FB60FB6819687B681A68FB680A43FA
:102F2C001A600DE07B681B791A46FB681344FB6042
:102F3C00FB6819687B681B68DA43FB680A401A60F7
:102F4C0000BF1437BD4680BC704700BF0004014071
:102F5C0080B483B000AF78607B6800221A607B6815
:102F6C0000221A717B680C225A717B6800229A71BC
:102F7C0000BF0C37BD4680BC704780B483B000AF37
:102F8C007860054B1A6904497B6813430B6100BFD9
:102F9C000C37BD4680BC70470004014080B485B03E
:102FAC0000AF78600023FB73084B5A697B681340B1
:102FBC00002B02D00123FB7301E00023FB73FB7B8E
:102FCC0018461437BD4680BC704700BF0004014052
:102FDC0080B483B000AF7860034A7B68536100BF54
:102FEC000C37BD4680BC70470004014080B485B0EE
:102FFC0000AF78600023FB730023BB600C4B1B6895
:10300C007A681340BB600A4B5A697B681340002BEB
:10301C0005D0BB68002B02D00123FB7301E0002319
:10302C00FB73FB7B18461437BD4680BC704700BF52
:10303C000004014080B483B000AF7860034A7B6821
:10304C00536100BF0C37BD4680BC70470004014083
:10305C0080B485B000AF78600023FB60094B1B681F
:10306C00FB60FB6803F03803FB60FA687B68134372
:10307C00FB60044AFB68136000BF1437BD4680BC7C
:10308C00704700BF0020024080B483B000AF78606E
:10309C00084B1B68074A23F008031360054B1A689A
:1030AC0004497B6813430B6000BF0C37BD4680BCE2
:1030BC00704700BF0020024080B483B000AF78603E
:1030CC00084B1B68074A23F010031360054B1A6862
:1030DC0004497B6813430B6000BF0C37BD4680BCB2
:1030EC00704700BF0020024080B400AF044B054A7B
:1030FC005A60034B044A5A6000BFBD4680BC7047FF
:10310C000020024023016745AB89EFCD80B400AFAE
:10311C00044B054A5A60034B044A5A6000BFBD4633
:10312C0080BC70470020024023016745AB89EFCD7E
:10313C0080B400AF044B1B69034A43F08003136156
:10314C0000BFBD4680BC70470020024080B400AF79
:10315C00044B1B69034A43F08003136100BFBD4657
:10316C0080BC70470020024080B584B000AF78600E
:10317C000423FB734FF4302000F0D0FB0346FB73A9
:10318C00FB7B042B1BD1104B1B690F4A43F0020332
:10319C0013610D4A7B6853610B4B1B690A4A43F060
:1031AC00400313614FF4302000F0B8FB0346FB736F
:1031BC00054B1A69044941F6FD7313400B61FB7B07
:1031CC0018461037BD4680BD0020024080B582B045
:1031DC0000AF0423FB714FF4302000F09FFB03463B
:1031EC00FB71FB79042B18D10E4B1B690D4A43F074
:1031FC00040313610B4B1B690A4A43F04003136130
:10320C004FF4302000F08AFB0346FB71054B1A6922
:10321C00044941F6FB7313400B61FB7918460837E0
:10322C00BD4680BD0020024080B582B000AF0423B3
:10323C00FB714FF4302000F093FB0346FB71FB79DC
:10324C00042B18D10E4B1B690D4A43F00403136178
:10325C000B4B1B690A4A43F0400313614FF43020B7
:10326C0000F07EFB0346FB71054B1A69044941F6DD
:10327C00FB7313400B61FB7918460837BD4680BDC4
:10328C000020024080B582B000AFA523FB80042350
:10329C007B7100F06BFA0346002B01D00023FB80FE
:1032AC004FF4302000F03AFB03467B717B79042B02
:1032BC0045D1254B254A9A60234B254A9A60224BCF
:1032CC001B69214A43F0200313611F4B1B691E4AE3
:1032DC0043F0400313614FF4302000F01FFB034612
:1032EC007B717B79042B20D1174B1A69164941F657
:1032FC00DF7313400B61144B1B69134A43F010032B
:10330C001361144AFB8813804FF4005000F006FB45
:10331C0003467B717B79052B11D00B4B1A690A493B
:10332C0041F6EF7313400B6109E07B79052B06D056
:10333C00054B1A69044941F6EF7313400B617B7915
:10334C0018460837BD4680BD002002402301674562
:10335C00AB89EFCD00F8FF1F80B584B000AF78606B
:10336C0039600423FB730023BB604FF4005000F062
:10337C00D5FA0346FB73FB7B042B2FD11A4B1B692D
:10338C00194A43F0010313617B683A6892B21A80C0
:10339C004FF4005000F0C2FA0346FB73FB7B042B86
:1033AC0015D17B680233BB603B681A0CBB6892B2C8
:1033BC001A804FF4005000F0B1FA0346FB730A4B2D
:1033CC001A69094941F6FE7313400B6106E0064B7E
:1033DC001A69054941F6FE7313400B61FB7B1846D5
:1033EC001037BD4680BD00BF0020024080B584B0C0
:1033FC0000AF78600B467B800423FB734FF40050C6
:10340C0000F08CFA0346FB73FB7B042B15D10D4BA0
:10341C001B690C4A43F0010313617B687A881A809C
:10342C004FF4005000F07AFA0346FB73054B1A690F
:10343C00044941F6FE7313400B61FB7B18461037B1
:10344C00BD4680BD0020024080B584B000AF7860DE
:10345C000B46FB700423FB734FF4005000F05EFA34
:10346C000346FB73FB7B042B1FD1124B124A9A6051
:10347C00104B124A9A600F4B1B690E4A43F0100313
:10348C0013617B68FA7892B21A804FF4005000F006
:10349C0045FA0346FB73FB7B052B06D0054B1A69DB
:1034AC00044941F6EF7313400B61FB7B1846103750
:1034BC00BD4680BD0020024023016745AB89EFCD9E
:1034CC0080B586B000AF78604FF6FF73BB824FF6C5
:1034DC00FF737B824FF6FF733B824FF6FF73FB81CA
:1034EC000423FB757B68DB437B607B689BB2DBB2A0
:1034FC00BB827B681B0A9BB2DBB27B827B681B0C9A
:10350C009BB2DBB23B827B681B0EFB814FF40050FD
:10351C0000F004FA0346FB75FB7D042B4ED12A4BBD
:10352C002A4A9A60284B2A4A9A60274B1B69264ADA
:10353C0043F010031361BB8AFF2B08D0254ABB8ACA
:10354C0013814FF4005000F0E9F90346FB75FB7D45
:10355C00042B0BD17B8AFF2B08D01E4A7B8A53810C
:10356C004FF4005000F0DAF90346FB75FB7D042B99
:10357C000BD13B8AFF2B08D0164A3B8A93814FF420
:10358C00005000F0CBF90346FB75FB7D042B0BD1EF
:10359C00FB89FF2B08D00F4AFB89D3814FF40050D5
:1035AC0000F0BCF90346FB75FB7D052B06D0064BE2
:1035BC001A69054941F6EF7313400B61FB7D184600
:1035CC001837BD4680BD00BF00200240230167456F
:1035DC00AB89EFCD00F8FF1F80B584B000AF034678
:1035EC00FB710423FB734FF4302000F097F9034672
:1035FC00FB73FB7B042B4CD1284B294A9A60274B3D
:10360C00284A9A60254B1B69244A43F02003136116
:10361C00224B1B69214A43F0400313614FF43020C5
:10362C0000F07CF90346FB73FB7B042B27D11B4B6F
:10363C001A691A4941F6DF7313400B61174B1B696A
:10364C00164A43F010031361FB79002B03D0164B81
:10365C0000221A8002E0144BA5221A804FF430206D
:10366C0000F05CF90346FB73FB7B052B11D00B4B75
:10367C001A690A4941F6EF7313400B6109E0FB7BB1
:10368C00052B06D0054B1A69044941F6DF7313402C
:10369C000B61FB7B18461037BD4680BD00200240F5
:1036AC0023016745AB89EFCD00F8FF1F80B584B0CF
:1036BC0000AF0346FB800B46BB8013467B80042384
:1036CC00FB731B4B1B4A9A60194B1B4A9A604FF4B5
:1036DC00005000F023F90346FB73FB7B042B21D134
:1036EC00134B1B69124A43F0100313617A88BB8891
:1036FC0013439AB2FB8813439BB2104A43F0F8036E
:10370C009BB253804FF4005000F008F90346FB7352
:10371C00FB7B052B06D0064B1A69054941F6EF7366
:10372C0013400B61FB7B18461037BD4680BD00BFB4
:10373C000020024023016745AB89EFCD00F8FF1F45
:10374C0080B400AF034BDB699B081846BD4680BCB8
:10375C00704700BF0020024080B400AF024B1B6AD0
:10376C001846BD4680BC70470020024080B483B030
:10377C0000AF0023FB71084BDB6903F00203002B45
:10378C0002D00123FB7101E00023FB71FB79184689
:10379C000C37BD4680BC70470020024080B483B01B
:1037AC0000AF0023FB71084B1B6803F02003002BB8
:1037BC0002D00123FB7101E00023FB71FB79184659
:1037CC000C37BD4680BC70470020024080B483B0EB
:1037DC0000AF78600B46FB70FB78002B06D0094BD2
:1037EC001A6908497B6813430B6106E0054B1A699B
:1037FC007B68DB43034913400B6100BF0C37BD46AC
:10380C0080BC70470020024080B485B000AF786067
:10381C000023FB737B68012B0BD10E4BDB6903F090
:10382C000103002B02D00123FB730DE00023FB737B
:10383C000AE0084BDA687B681340002B02D00123A6
:10384C00FB7301E00023FB73FB7B18461437BD466A
:10385C0080BC70470020024080B483B000AF786019
:10386C00034A7B68D36000BF0C37BD4680BC7047F1
:10387C000020024080B483B000AF0423FB71114BD5
:10388C00DB6803F00103012B02D10123FB7113E070
:10389C000C4BDB6803F00403002B02D00223FB71FA
:1038AC000AE0084BDB6803F01003002B02D0032363
:1038BC00FB7101E00423FB71FB7918460C37BD4604
:1038CC0080BC70470020024080B483B000AF04235A
:1038DC00FB71114BDB6803F00103012B02D10123B7
:1038EC00FB7113E00C4BDB6803F00403002B02D0DC
:1038FC000223FB710AE0084BDB6803F01003002B7A
:10390C0002D00323FB7101E00423FB71FB79184601
:10391C000C37BD4680BC70470020024080B584B097
:10392C0000AF78600423FB73FFF7CEFF0346FB73F5
:10393C0006E0FFF7C9FF0346FB737B68013B7B6026
:10394C00FB7B012B02D17B68002BF2D17B68002B17
:10395C0001D10523FB73FB7B18461037BD4680BD98
:10396C0080B584B000AF78600423FB73FFF7ACFF25
:10397C000346FB7306E0FFF7A7FF0346FB737B6868
:10398C00013B7B60FB7B012B02D17B68002BF2D1CE
:10399C007B68002B01D10523FB73FB7B184610378A
:1039AC00BD4680BD80B483B000AF78607B68002BCF
:1039BC0007D14FF020427B6843F2DB0142F8231021
:1039CC0006E04FF020427B6843F2D20142F823100C
:1039DC004FF020427B6801336FF0704142F82310A6
:1039EC00054A7B686FF0704142F8231000BF0C371A
:1039FC00BD4680BC704700BF040100A080B483B0FA
:103A0C0000AF78607B68102B0ED1114B18221A6016
:103A1C000F4B40225A600E4B4FF0FC329A600C4B0D
:103A2C004FF0FC32DA600DE00A4B18221A60094B99
:103A3C0040225A60074B4FF0FC329A60054B4FF016
:103A4C00FC32DA6000BF0C37BD4680BC704700BF4B
:103A5C00600000A0800000A080B400AF0A4B1822C8
:103A6C001A60094B00225A60074B4FF0FC329A60E7
:103A7C00054B4FF0FC32DA60034B4FF0FC321A610D
:103A8C0000BFBD4680BC7047A00000A080B483B0CE
:103A9C0000AF78607B685A687B689B681A437B68C8
:103AAC00DB681A437B681B691A437B685B691A43A2
:103ABC007B689B691A437B68DB691A437B681B6ACA
:103ACC001A437B685B6A1A437B689B6A1A437B6860
:103ADC00DB6A42EA03017B681A6B4FF020407B687B
:103AEC001B680A4340F823207B689B68082B0DD188
:103AFC004FF020427B681B6852F823204FF0204186
:103B0C007B681B6842F0400241F823207B685B6BAA
:103B1C001A687B685B6B5B681B011A437B685B6B89
:103B2C009B681B021A437B685B6BDB681B041A43A4
:103B3C007B685B6B1B691B051A437B685B6B5B6962
:103B4C001B0642EA03017B685B6B9A694FF02040CD
:103B5C007B681B6801330A4340F823207B68DB6ACF
:103B6C00B3F5804F21D17B689B6B1A687B689B6B8C
:103B7C005B681B011A437B689B6B9B681B021A4397
:103B8C007B689B6B1B691B051A437B689B6B5B6992
:103B9C001B0642EA03017B689B6B9A6909487B68A8
:103BAC001B680A4340F8232006E0064A7B681B6822
:103BBC006FF0704142F8231000BF0C37BD4680BC3B
:103BCC00704700BF040100A080B487B000AF7860DC
:103BDC0000237B6100233B610023FB607B685A68F8
:103BEC007B689B681A437B68DB681A437B681B699C
:103BFC001A437B685B695B021A437B689B695B03B6
:103C0C00134343F008037B617B68DB691A687B68AC
:103C1C00DB695B681B021A437B68DB699B681B04CE
:103C2C001A437B68DB69DB681B0613433B617B68CB
:103C3C001B6A1A687B681B6A5B681B021A437B68E9
:103C4C001B6A9B681B041A437B681B6ADB681B0698
:103C5C001343FB607B681B68102B09D10B4A7B69F3
:103C6C0013600A4A3B699360084AFB68D36008E01A
:103C7C00074A7B691360064A3B699360044AFB68F8
:103C8C00D36000BF1C37BD4680BC7047600000A0ED
:103C9C00800000A080B483B000AF78607B681A68A5
:103CAC007B685B685B021A437B689B685B0313430E
:103CBC00224A43F0100313607B68DB681A687B6848
:103CCC00DB685B681B021A437B68DB689B681B0420
:103CDC001A437B68DB68DB681B06184913438B604F
:103CEC007B681B691A687B681B695B681B021A433B
:103CFC007B681B699B681B041A437B681B69DB6828
:103D0C001B060E491343CB607B685B691A687B68A2
:103D1C005B695B681B021A437B685B699B681B04CD
:103D2C001A437B685B69DB681B06044913430B6110
:103D3C0000BF0C37BD4680BC704700BFA00000A080
:103D4C0080B483B000AF78607B6800221A607B6817
:103D5C0002225A607B6800229A607B680022DA603B
:103D6C007B6800221A617B6800225A617B68002202
:103D7C009A617B680022DA617B6800221A627B6898
:103D8C004FF480525A627B684FF400529A627B68FF
:103D9C000022DA627B6800221A637B685B6B0F225D
:103DAC001A607B685B6B0F225A607B685B6BFF222F
:103DBC009A607B685B6B0F22DA607B685B6B0F220F
:103DCC001A617B685B6B0F225A617B685B6B00220C
:103DDC009A617B689B6B0F221A607B689B6B0F222E
:103DEC005A607B689B6BFF229A607B689B6B0F22EF
:103DFC00DA607B689B6B0F221A617B689B6B0F22CE
:103E0C005A617B689B6B00229A6100BF0C37BD46E0
:103E1C0080BC704780B483B000AF78607B681022A0
:103E2C001A607B6800225A607B6800229A607B686B
:103E3C000022DA607B6800221A617B6800225A61DA
:103E4C007B6800229A617B68DB69FC221A607B68C4
:103E5C00DB69FC225A607B68DB69FC229A607B6818
:103E6C00DB69FC22DA607B681B6AFC221A607B68C7
:103E7C001B6AFC225A607B681B6AFC229A607B6876
:103E8C001B6AFC22DA6000BF0C37BD4680BC704751
:103E9C0080B483B000AF78607B6800221A607B68C6
:103EAC0000225A607B6800229A607B68DB68FC22E7
:103EBC001A607B68DB68FC225A607B68DB68FC223A
:103ECC009A607B68DB68FC22DA607B681B69FC22E9
:103EDC001A607B681B69FC225A607B681B69FC2298
:103EEC009A607B681B69FC22DA607B685B69FC2248
:103EFC001A607B685B69FC225A607B685B69FC22F8
:103F0C009A607B685B69FC22DA6000BF0C37BD46A7
:103F1C0080BC704780B483B000AF78600B46FB70F8
:103F2C00FB78002B0CD04FF020427B6852F82330EA
:103F3C004FF0204143F001027B6841F823200BE055
:103F4C004FF020427B6852F823204FF02041054B64
:103F5C0013407A6841F8223000BF0C37BD4680BC54
:103F6C00704700BFFEFF0F0080B483B000AF7860D5
:103F7C000B46FB70FB78002B10D07B68102B06D106
:103F8C00114B1B68104A43F00403136016E00F4BEF
:103F9C001B680E4A43F0040313600FE07B68102B80
:103FAC0006D1094B1A680849094B13400B6005E010
:103FBC00064B1A680549064B13400B6000BF0C37C3
:103FCC00BD4680BC704700BF600000A0800000A010
:103FDC00FBFF0F0080B483B000AF0346FB71FB798D
:103FEC00002B06D0084B1B68074A43F004031360F0
:103FFC0005E0054B1A680449044B13400B6000BFE5
:10400C000C37BD4680BC7047A00000A0FBFF0F0022
:10401C0080B483B000AF78600B46FB70FB78002B4C
:10402C0010D07B68102B06D1114B1B68104A43F043
:10403C004003136016E00F4B1B680E4A43F040031D
:10404C0013600FE07B68102B06D1094B1A680849E6
:10405C00094B13400B6005E0064B1A680549064BEB
:10406C0013400B6000BF0C37BD4680BC704700BFCF
:10407C00600000A0800000A0BFFF0F0080B485B0DE
:10408C0000AF78600023FB607B68102B03D1064BDC
:10409C005B69FB6002E0054B5B69FB60FB681846E3
:1040AC001437BD4680BC7047600000A0800000A0A3
:1040BC0080B485B000AFF860B9601346FB71FB7932
:1040CC00002B1BD0FB68102B06D11E4B5A681D49C8
:1040DC00BB6813434B602FE0FB68B3F5807F06D1C0
:1040EC00194B5A681849BB6813434B6024E0174BB3
:1040FC005A681649BB6813434B601DE0FB68102BD4
:10410C0007D1104B5A68BB68DB430E4913404B6018
:10411C0012E0FB68B3F5807F07D10B4B5A68BB6884
:10412C00DB43094913404B6006E0084B5A68BB68F7
:10413C00DB43064913404B6000BF1437BD4680BCBF
:10414C00704700BF600000A0800000A0A00000A08D
:10415C0080B485B000AF786039600023FB73002316
:10416C00BB607B68102B03D10F4B5B68BB600AE014
:10417C007B68B3F5807F03D10C4B5B68BB6002E0BE
:10418C000B4B5B68BB60BA683B681340002B02D0DA
:10419C000123FB7301E00023FB73FB7B18461437F0
:1041AC00BD4680BC704700BF600000A0800000A02E
:1041BC00A00000A080B483B000AF786039607B6849
:1041CC00102B07D10F4B5A683B68DB430D4913404A
:1041DC004B6012E07B68B3F5807F07D10A4B5A68BD
:1041EC003B68DB43084913404B6006E0074B5A68B9
:1041FC003B68DB43054913404B6000BF0C37BD46A1
:10420C0080BC7047600000A0800000A0A00000A04F
:10421C0080B487B000AF786039600023FB75002351
:10422C003B610023FB600023BB607B68102B03D138
:10423C00144B5B683B610AE07B68B3F5807F03D16C
:10424C00114B5B683B6102E0104B5B683B613A6968
:10425C003B681340FB603B68DB083A691340BB606A
:10426C00FB68002B05D0BB68002B02D00123FB752B
:10427C0001E00023FB75FB7D18461C37BD4680BC56
:10428C00704700BF600000A0800000A0A00000A04C
:10429C0080B483B000AF786039607B68102B08D194
:1042AC00114B5A683B68DB08DB430F4913404B60EA
:1042BC0014E07B68B3F5807F08D10C4B5A683B68DF
:1042CC00DB08DB43094913404B6007E0084B5A6895
:1042DC003B68DB08DB43064913404B6000BF0C37DF
:1042EC00BD4680BC704700BF600000A0800000A0ED
:1042FC00A00000A080B582B000AF78607B682F4A28
:10430C00934208D10121042001F0CAFB00210420B2
:10431C0001F0C6FB4EE07B68294A934208D101218B
:10432C00082001F0BDFB0021082001F0B9FB41E0A1
:10433C007B68244A934208D10121102001F0B0FB84
:10434C000021102001F0ACFB34E07B681E4A934244
:10435C0008D10121202001F0A3FB0021202001F035
:10436C009FFB27E07B68194A934208D1012140202A
:10437C0001F096FB0021402001F092FB1AE07B68D3
:10438C00134A934208D10121802001F089FB0021BE
:10439C00802001F085FB0DE07B680E4A934209D129
:1043AC0001214FF4807001F07BFB00214FF48070F1
:1043BC0001F076FB00BF0837BD4680BD0008014008
:1043CC00000C014000100140001401400018014095
:1043DC00001C01400020014080B500AF01210120EC
:1043EC0001F05EFB0021012001F05AFB00BF80BDF3
:1043FC0080B489B000AF786039600023FB61002382
:10440C003B610023BB610023FB6000237B61002325
:10441C00BB603B68DB7803F00F03FB613B68DB7828
:10442C0003F01003002B05D03B689B781A46FB6900
:10443C001343FB613B681B88DBB2002B44D07B68C9
:10444C001B687B610023BB6138E00122BB6902FA67
:10445C0003F3FB603B681B881A46FB6813403B6107
:10446C003A69FB689A4226D1BB699B00FB600F221C
:10447C00FB6802FA03F3BB60BB68DB437A69134049
:10448C007B61FA69FB6802FA03F37A6913437B6177
:10449C003B68DB78282B05D10122BB699A407B68ED
:1044AC005A6108E03B68DB78482B04D10122BB69D8
:1044BC009A407B681A61BB690133BB61BB69072BEE
:1044CC00C3D97B687A691A603B681B88FF2B46D975
:1044DC007B685B687B610023BB613AE0BB69083396
:1044EC00012202FA03F3FB603B681B881A46FB6847
:1044FC0013403B613A69FB689A4227D1BB699B0028
:10450C00FB600F22FB6802FA03F3BB60BB68DB4362
:10451C007A6913407B61FA69FB6802FA03F37A69E2
:10452C0013437B613B68DB78282B05D1BB690833CF
:10453C0001229A407B685A613B68DB78482B05D195
:10454C00BB69083301229A407B681A61BB6901334D
:10455C00BB61BB69072BC1D97B687A695A6000BF04
:10456C002437BD4680BC704780B483B000AF786000
:10457C007B684FF6FF721A807B6802229A707B6808
:10458C000422DA7000BF0C37BD4680BC704780B483
:10459C0085B000AF78600B467B800023FB737B6893
:1045AC009A687B881340002B02D00123FB7301E037
:1045BC000023FB73FB7B18461437BD4680BC704749
:1045CC0080B483B000AF78607B689B689BB2184660
:1045DC000C37BD4680BC704780B485B000AF7860A6
:1045EC000B467B800023FB737B68DA687B88134067
:1045FC00002B02D00123FB7301E00023FB73FB7B38
:10460C0018461437BD4680BC704780B483B000AFE9
:10461C0078607B68DB689BB218460C37BD4680BC63
:10462C00704780B483B000AF78600B467B807A888B
:10463C007B681A6100BF0C37BD4680BC704780B4E4
:10464C0083B000AF78600B467B807A887B685A61B8
:10465C0000BF0C37BD4680BC704780B483B000AF40
:10466C0078600B467B8013467B707B78002B03D0E5
:10467C007A887B681A6102E07A887B685A6100BF8D
:10468C000C37BD4680BC704780B483B000AF7860F7
:10469C000B467B807A887B68DA6000BF0C37BD469E
:1046AC0080BC704780B485B000AF78600B467B80CF
:1046BC004FF48033FB607B88FA681343FB607B68A4
:1046CC00FA689A617A887B689A617B68FA689A6161
:1046DC007B689B69FB607B689B69FB6000BF143740
:1046EC00BD4680BC704780B485B000AF03460A4617
:1046FC00FB711346BB710023FB600C4B1B68FB600A
:10470C00FA684FF680731340FB60FB791B01FA6863
:10471C001343FB60BB79FA681343FB60034AFB68E5
:10472C00136000BF1437BD4680BC704700000140C9
:10473C0080B483B000AF0346FB71044AFB7913606D
:10474C0000BF0C37BD4680BC704700BF1C00204228
:10475C0080B487B000AF78600B46FB7000233B61E0
:10476C000023FB6000237B610023BB607B68002B74
:10477C0003DA2E4BDB697B6102E02C4B5B687B61BF
:10478C007B681B0C03F00F03BB607B689BB23B6127
:10479C007B6803F44013B3F5401F0AD17B6923F007
:1047AC0070637B61214B5B68204A23F0706353601C
:1047BC0021E07B6803F48013002B0ED00322BB682E
:1047CC0002FA03F3FB60FB68DB437A6913407B61FD
:1047DC007B6943F070637B610DE07B685B0D1B01B3
:1047EC003A6902FA03F3DB437A6913407B617B6914
:1047FC0043F070637B61FB78002B08D07B685B0D0A
:10480C001B013A6902FA03F37A6913437B617B68F3
:10481C00002B03DA054A7B69D36102E0034A7B690A
:10482C00536000BF1C37BD4680BC70470000014080
:10483C0080B485B000AF03460A46FB711346BB71CA
:10484C000023FB60BB7903F003039B000F2202FAE9
:10485C0003F3FB60154ABB799B08DBB2023352F8B9
:10486C002320FB68DB431148B9798908C9B21A4087
:10487C008B1C40F823200D4ABB799B08DBB202331A
:10488C0052F82320F979BB7903F003039B0001FA5A
:10489C0003F30648B9798908C9B21A438B1C40F84E
:1048AC00232000BF1437BD4680BC70470000014078
:1048BC0080B483B000AF7860034A7B68136000BF9C
:1048CC000C37BD4680BC7047DC00204280B582B0FE
:1048DC0000AF78607B680E4A93420AD101214FF4F5
:1048EC00001001F0FBF800214FF4001001F0F6F875
:1048FC0009E001214FF4800001F0F0F800214FF4A1
:10490C00800001F0EBF800BF0837BD4680BD00BF4A
:10491C000054004080B58AB000AF78603960002345
:10492C00FB8400237B840423BB84574BFB617B6893
:10493C009B88FB84FB8C23F03F03FB8407F108036B
:10494C00184600F09DFF3B69FB61FB694F4AA2FBD7
:10495C0003239B0C7B84FA8C7B8C1343FB847B683A
:10496C00FA8C9A807B681B889BB223F001039AB265
:10497C007B681A800023FB843B681B68444A934283
:10498C0015D83B681B685B00FA69B2FBF3F3BB8478
:10499C00BB8C032B01D80423BB84FA8CBB8C134334
:1049AC00FB847B8C01339AB27B681A8440E03B68B1
:1049BC00DB884BF6FF72934209D13B681A681346A9
:1049CC005B001344FA69B2FBF3F3BB840EE03B6863
:1049DC001A6813469B0013449A001344FA69B2FBFD
:1049EC00F3F3BB84BB8C43F48043BB84BB8CC3F319
:1049FC000B03002B03D1BB8C43F00103BB84BA8C9B
:104A0C00FB8C13439BB26FEA43436FEA5343FB8423
:104A1C007B8C4FF4967202FB03F31E4A82FB03124B
:104A2C009211DB17D31A9BB201339AB27B681A84AA
:104A3C007B68FA8C9A837B681B889BB243F00103DA
:104A4C009AB27B681A807B681B88FB84FB8C23F4EE
:104A5C00816323F00203FB843B689A883B685B8983
:104A6C0013439AB2FB8C1343FB847B68FA8C1A8039
:104A7C003B689A893B681B8913439AB27B681A81FD
:104A8C0000BF2837BD4680BD00127A0083DE1B4371
:104A9C00A0860100D34D621080B483B000AF786063
:104AAC007B6841F288321A607B6800229A807B68AE
:104ABC004BF6FF72DA807B6800221A817B68002239
:104ACC005A817B684FF480429A8100BF0C37BD46F7
:104ADC0080BC704780B483B000AF78600B46FB702D
:104AEC00FB78002B08D07B681B889BB243F001033A
:104AFC009AB27B681A8007E07B681B889BB223F014
:104B0C0001039AB27B681A8000BF0C37BD4680BC8B
:104B1C00704780B483B000AF78600B46FB70FB78B5
:104B2C00002B08D07B689B889BB243F400639AB23D
:104B3C007B689A8007E07B689B889BB223F40063B8
:104B4C009AB27B689A8000BF0C37BD4680BC704718
:104B5C0080B483B000AF78600B46FB70FB78002B01
:104B6C0008D07B689B889BB243F480539AB27B68D5
:104B7C009A8007E07B689B889BB223F480539AB29F
:104B8C007B689A8000BF0C37BD4680BC704780B4F0
:104B9C0083B000AF78600B46FB70FB78002B08D01D
:104BAC007B681B889BB243F480739AB27B681A8033
:104BBC0007E07B681B889BB223F480739AB27B68F6
:104BCC001A8000BF0C37BD4680BC704780B483B0E0
:104BDC0000AF78600B46FB70FB78002B08D07B682D
:104BEC001B889BB243F400739AB27B681A8007E06F
:104BFC007B681B889BB223F400739AB27B681A8083
:104C0C0000BF0C37BD4680BC704780B483B000AF8A
:104C1C0078600B46FB70FB78002B08D07B681B88F8
:104C2C009BB243F480639AB27B681A8007E07B687E
:104C3C001B889BB223F480639AB27B681A8000BFF6
:104C4C000C37BD4680BC704780B485B000AF78602F
:104C5C000B46FB700023FB817B689B89FB81FB89E6
:104C6C0023F0FE03FB81FB781BB203F0FE031AB2A8
:104C7C00B7F90E3013431BB2FB817B68FA899A811A
:104C8C0000BF1437BD4680BC704780B483B000AF02
:104C9C0078600B46FB70FB78002B08D07B689B89F7
:104CAC009BB243F001039AB27B689A8107E07B6860
:104CBC009B899BB223F001039AB27B689A8100BF57
:104CCC000C37BD4680BC704780B483B000AF7860B1
:104CDC000B46FB70FB78002B08D07B681B889BB2C3
:104CEC0043F040039AB27B681A8007E07B681B880C
:104CFC009BB223F040039AB27B681A8000BF0C373A
:104D0C00BD4680BC704780B483B000AF78600B4662
:104D1C007B8013467B707B78002B08D07B689B884C
:104D2C009AB27B8813439AB27B689A8009E07B68BD
:104D3C009B889AB27B88DB439BB213409AB27B6808
:104D4C009A8000BF0C37BD4680BC704780B483B0DE
:104D5C0000AF78600B46FB70FB789AB27B681A82C6
:104D6C0000BF0C37BD4680BC704780B483B000AF29
:104D7C0078607B681B8A9BB2DBB218460C37BD4649
:104D8C0080BC704780B483B000AF78600B46FB707A
:104D9C001346BB70BB78002B04D0FB7843F00103A7
:104DAC00FB7003E0FB7823F00103FB70FB789AB2F5
:104DBC007B681A8200BF0C37BD4680BC704780B43C
:104DCC0085B000AF78600B46FB700023FB607B68FE
:104DDC00FB60FA78FB681344FB60FB681B889BB292
:104DEC0018461437BD4680BC704780B483B000AF02
:104DFC0078600B46FB70FB78002B0AD07B681B8815
:104E0C009BB26FEA43436FEA53439AB27B681A80B2
:104E1C0007E07B681B889BB2C3F30E039AB27B68D6
:104E2C001A8000BF0C37BD4680BC704780B483B07D
:104E3C0000AF78600B467B807B88B3F5006F08D1A0
:104E4C007B681B889BB243F400639AB27B681A8020
:104E5C0007E07B681B889BB223F400639AB27B68E3
:104E6C001A8000BF0C37BD4680BC704780B483B03D
:104E7C0000AF78600B467B807B88B3F5005F08D170
:104E8C007B681B889BB243F400539AB27B681A80F0
:104E9C0007E07B681B889BB223F400539AB27B68B3
:104EAC001A8000BF0C37BD4680BC704780B483B0FD
:104EBC0000AF78600B46FB70FB78002B08D07B684A
:104ECC001B889BB243F480539AB27B681A8007E02C
:104EDC007B681B889BB223F480539AB27B681A8040
:104EEC0000BF0C37BD4680BC704780B483B000AFA8
:104EFC0078600B467B807B88B3F5006F08D17B68AC
:104F0C001B889BB243F400639AB27B681A8007E05B
:104F1C007B681B889BB223F400639AB27B681A806F
:104F2C0000BF0C37BD4680BC704780B483B000AF67
:104F3C0078600B46FB70FB78002B08D07B681B88D5
:104F4C009BB243F020039AB27B681A8007E07B681F
:104F5C001B889BB223F020039AB27B681A8000BF97
:104F6C000C37BD4680BC704780B483B000AF78600E
:104F7C007B681B8B9BB21B0A9BB2DBB218460C37AF
:104F8C00BD4680BC704780B483B000AF78600B46E0
:104F9C00FB70FB78002B08D07B681B889BB243F01E
:104FAC0010039AB27B681A8007E07B681B889BB25F
:104FBC0023F010039AB27B681A8000BF0C37BD46F1
:104FCC0080BC704780B483B000AF78600B46FB7038
:104FDC00FB78002B08D17B681B889BB243F08003C5
:104FEC009AB27B681A8007E07B681B889BB223F01F
:104FFC0080039AB27B681A8000BF0C37BD4680BC18
:10500C00704780B483B000AF78600B467B807B88A0
:10501C00B3F5804F08D07B689B8B9BB223F4804305
:10502C009AB27B689A8307E07B689B8B9BB243F4B4
:10503C0080439AB27B689A8300BF0C37BD4680BC14
:10504C00704780B487B000AF7860396000233B6153
:10505C000023FB600023BB600023FB757B689B8AED
:10506C009BB2FB607B681B8B9BB2BB60BB681B0459
:10507C00BB60FA68BB68134323F07F433B613A691A
:10508C003B6813403A689A4202D10123FB7501E058
:10509C000023FB75FB7D18461C37BD4680BC704752
:1050AC0080B487B000AF786000237B6100233B6144
:1050BC000023FB607B689B8A9BB23B617B681B8BEC
:1050CC009BB2FB60FB681B04FB603A69FB681343F3
:1050DC0023F07F437B617B6918461C37BD4680BC3F
:1050EC00704780B487B000AF786039600023FB75DF
:1050FC0000233B610023FB607B68FB603B681B0F5C
:10510C003B613B6823F07F433B603B69002B03D042
:10511C00FB681433FB6005E03B681B0C3B60FB68D1
:10512C001833FB60FB681A683B681340002B02D0F5
:10513C000123FB7501E00023FB75FB7D18461C3732
:10514C00BD4680BC704780B485B000AF78603960D4
:10515C000023FB603B6823F07F43FB60FB689BB242
:10516C00DB439AB27B689A8200BF1437BD4680BC81
:10517C00704780B485B000AF786039600023FB7352
:10518C000023BB603B681B0C7A68928892B2134078
:10519C0003F4E063BB603B6823F07F433B607B68B8
:1051AC009B8A9BB21A463B681340002B05D0BB6808
:1051BC00002B02D00123FB7301E00023FB73FB7B6C
:1051CC0018461437BD4680BC704780B485B000AF1C
:1051DC00786039600023FB603B6823F07F43FB6001
:1051EC00FB689BB2DB439AB27B689A8200BF143790
:1051FC00BD4680BC704700BF80B483B000AF03468F
:10520C00FB80044AFB88136000BF0C37BD4680BC92
:10521C00704700BF0030004080B483B000AF03463D
:10522C00FB71044AFB79536000BF0C37BD4680BC50
:10523C00704700BF0030004080B483B000AF03461D
:10524C00FB80044AFB88936000BF0C37BD4680BCD2
:10525C00704700BF0030004080B400AF034B4AF6EB
:10526C00AA221A6000BFBD4680BC704700300040C7
:10527C0080B400AF034B4CF6CC421A6000BFBD4665
:10528C0080BC70470030004080B485B000AF03464E
:10529C00FB800023FB73084BDA68FB881340002B60
:1052AC0002D00123FB7301E00023FB73FB7B184648
:1052BC001437BD4680BC70470030004080B400AF4E
:1052CC0030BF00BFBD4680BC704780B400AF20BF6C
:1052DC0000BFBD4680BC704780B500AF01214FF0C8
:1052EC00805000F0FBFB00214FF0805000F0F6FBEB
:1052FC0000BF80BD80B483B000AF0346FB71044A8D
:10530C00FB79136000BF0C37BD4680BC704700BFF3
:10531C0020000E4280B483B000AF0346FB71044AF8
:10532C00FB79136000BF0C37BD4680BC704700BFD3
:10533C0010000E4280B485B000AF78600023FB6093
:10534C00094B1B68FB60FB6823F0E003FB60FA6809
:10535C007B681343FB60044AFB68136000BF14377F
:10536C00BD4680BC704700BF0070004080B483B065
:10537C0000AF0346FB71044AFB79136000BF0C3786
:10538C00BD4680BC704700BFA0000E4280B584B003
:10539C0000AF78600B46FB700023FB60124B1B6860
:1053AC00FB60FB6823F00303FB60FA687B68134324
:1053BC00FB600D4AFB6813600C4B1B690B4A43F0F6
:1053CC0004031361FB78012B02D1FFF777FF01E097
:1053DC00FFF77BFF054B1B69044A23F004031361A1
:1053EC0000BF1037BD4680BD0070004000ED00E0EE
:1053FC0080B500AF0A4B1B68094A43F004031360E5
:10540C00074B1B68064A43F002031360054B1B69EC
:10541C00044A43F004031361FFF750FF00BF80BD43
:10542C000070004000ED00E080B485B000AF786003
:10543C000023FB73084B5A687B681340002B02D087
:10544C000123FB7301E00023FB73FB7B184614372D
:10545C00BD4680BC704700BF0070004080B483B074
:10546C0000AF7860054B1A687B689B0003491343B7
:10547C000B6000BF0C37BD4680BC7047007000400D
:10548C0080B400AF134B1B68124A43F00103136046
:10549C00104B5A680F49104B13404B600D4B1B6857
:1054AC000C4A23F0847323F480331360094B1B687C
:1054BC00084A23F480231360064B5B68054A23F4E7
:1054CC00FE035360034B4FF41F029A6000BFBD46AE
:1054DC0080BC7047001002400000FFF880B483B01D
:1054EC0000AF7860134B1B68124A23F480331360AF
:1054FC00104B1B680F4A23F4802313607B68B3F5B1
:10550C00803F04D07B68B3F5802F07D00DE0094BAA
:10551C001B68084A43F48033136006E0054B1B6894
:10552C00044A43F4A023136000BF00BF0C37BD46F0
:10553C0080BC70470010024080B582B000AF0023E1
:10554C003B600023FB710023BB71312000F014FB86
:10555C000346BB713B6801333B603B68B3F5A06FFE
:10556C0002D0BB79002BF0D0312000F005FB0346B4
:10557C00002B02D00123FB7101E00023FB71FB79AE
:10558C0018460837BD4680BD80B485B000AF0346D1
:10559C00FB710023FB600A4B1B68FB60FB6823F06C
:1055AC00F803FB60FB79DB00FA681343FB60044AE9
:1055BC00FB68136000BF1437BD4680BC704700BF4A
:1055CC000010024080B483B000AF0346FB71044A64
:1055DC00FB79136000BF0C37BD4680BC704700BF21
:1055EC000000424280B485B000AF7860396000237F
:1055FC00FB600A4B5B68FB60FB6823F47C13FB606D
:10560C007A683B681343FA681343FB60034AFB68F0
:10561C00536000BF1437BD4680BC70470010024079
:10562C0080B483B000AF0346FB71044AFB7913606E
:10563C0000BF0C37BD4680BC704700BF60004242C3
:10564C0080B485B000AF78600023FB60094B5B68C9
:10565C00FB60FB6823F00303FB60FA687B68134371
:10566C00FB60044AFB68536000BF1437BD4680BC26
:10567C00704700BF0010024080B400AF044B5B6861
:10568C00DBB203F00C03DBB21846BD4680BC70479E
:10569C000010024080B485B000AF78600023FB603E
:1056AC00094B5B68FB60FB6823F0F003FB60FA6856
:1056BC007B681343FB60044AFB68536000BF1437DC
:1056CC00BD4680BC704700BF0010024080B485B05E
:1056DC0000AF78600023FB60094B5B68FB60FB68E4
:1056EC0023F4E063FB60FA687B681343FB60044AB5
:1056FC00FB68536000BF1437BD4680BC704700BFC9
:10570C000010024080B485B000AF78600023FB60CD
:10571C00094B5B68FB60FB6823F46053FB607B68A0
:10572C00DB00FA681343FB60034AFB68536000BF5D
:10573C001437BD4680BC70470010024080B483B063
:10574C0000AF03460A46FB711346BB71BB79002BB5
:10575C0008D00C4B1B78DAB20A49FB791343DBB245
:10576C000B7009E0074B1B78DAB2FB79DB43DBB239
:10577C0004491340DBB20B7000BF0C37BD4680BC34
:10578C00704700BF0910024080B483B000AF78604E
:10579C00034A7B68136000BF0C37BD4680BC704762
:1057AC00D800424280B485B000AF78600023FB6023
:1057BC00094B5B68FB60FB6823F44043FB60FA68B1
:1057CC007B681343FB60044AFB68536000BF1437CB
:1057DC00BD4680BC704700BF0010024080B483B04F
:1057EC0000AF0346FB710C4B00221A700A4B0022CF
:1057FC001A70FB79012B02D0042B04D007E0064B66
:10580C0001221A7003E0044B05221A7000BF00BF7E
:10581C000C37BD4680BC70472010024080B483B06A
:10582C0000AF0346FB71044AFB79136000BF0C37D1
:10583C00BD4680BC704700BF8004424280B483B038
:10584C0000AF7860054B1A6A04497B6813430B62FE
:10585C0000BF0C37BD4680BC704700BF0010024033
:10586C0080B483B000AF0346FB71044AFB7913602C
:10587C0000BF0C37BD4680BC704700BF3C044242A1
:10588C0080B487B000AF786000237B6100233B615C
:10589C000023FB600023BB604F4B5B6803F00C03E1
:1058AC007B617B69082B11D07B69082B3AD87B690B
:1058BC00002B03D07B69042B04D033E07B68474A70
:1058CC001A6033E07B68454A1A602FE0424B5B68F4
:1058DC0003F470133B61404B5B6803F48033FB6053
:1058EC003B699B0C02333B61FB68002B06D13B6987
:1058FC003B4A03FB02F27B681A6017E0364B5B688D
:10590C0003F40033002B06D03B69354A03FB02F24B
:10591C007B681A600AE03B69304A03FB02F27B6841
:10592C001A6003E07B682D4A1A6000BF2A4B5B6843
:10593C0003F0F0037B617B691B097B61294A7B695E
:10594C0013441B78DBB2BB607B681A68BB68DA4017
:10595C007B685A60204B5B6803F4E0637B617B6976
:10596C001B0A7B611F4A7B6913441B78DBB2BB604B
:10597C007B685A68BB68DA407B689A60164B5B6838
:10598C0003F460537B617B69DB0A7B61154A7B699D
:10599C0013441B78DBB2BB607B685A68BB68DA4087
:1059AC007B68DA600C4B5B6803F440437B617B697A
:1059BC009B0B7B610C4A7B6913441B78DBB2BB608D
:1059CC007B68DA68BB68B2FBF3F27B681A6100BFD4
:1059DC001C37BD4680BC70470010024000127A0094
:1059EC0000093D00000000201000002080B483B0AE
:1059FC0000AF78600B46FB70FB78002B06D0094B90
:105A0C005A6908497B6813434B6106E0054B5A6998
:105A1C007B68DB43034913404B6100BF0C37BD4629
:105A2C0080BC70470010024080B483B000AF786037
:105A3C000B46FB70FB78002B06D0094B9A69084982
:105A4C007B6813438B6106E0054B9A697B68DB43EB
:105A5C00034913408B6100BF0C37BD4680BC7047B7
:105A6C000010024080B483B000AF78600B46FB702E
:105A7C00FB78002B06D0094BDA6908497B68134385
:105A8C00CB6106E0054BDA697B68DB4303491340C5
:105A9C00CB6100BF0C37BD4680BC70470010024084
:105AAC0080B483B000AF78600B46FB70FB78002BA2
:105ABC0006D0094BDA6808497B681343CB6006E0D3
:105ACC00054BDA687B68DB4303491340CB6000BFAE
